:100000000C94AC000C9417210C9444210C947512A0
:100010000C9499120C94BD120C94D4000C946204AC
:100020000C94D4000C94D4000C94D4000C94D40000
:100030000C94D4000C94DF140C94D4000C94D400D1
:100040000C9471210C94D4000C944C230C949323A5
:100050000C94D4000C94D4000C94D4000C94D400D0
:100060000C94D4000C94D40000C2010001001100D3
:1000700011000C0000E100000A002500250021000D
:10008000009600001900390039003600127A00008D
:100090001F004600460044008070000022004D0012
:1000A0004D004A00004B00003600750075007200DC
:1000B000403800004A009C009C0099008025000008
:1000C0007200EC00EC00E900C0120000E900DA0167
:1000D000DA01D70160090000D701B603B603B30304
:1000E000B0040000B3036E076E076B072C0100001D
:1000F000DC0EC11DC11DBE1D000000002400270034
:100100002A0000000000250028002B00000000004D
:100110002300260029000404040404040404020249
:100120000202020203030303030301020408102076
:100130004080010204081020010204081020000081
:100140000007000201000003040600000000000098
:100150000000D31EF924D81E11241FBECFEFD8E013
:10016000DEBFCDBF13E0A0E0B1E0E0E6FFE502C0F6
:1001700005900D92A23EB107D9F716E0A2EEB3E0CA
:1001800001C01D92AF33B107E1F711E0C6E5D1E040
:1001900004C02297FE010E94762CC235D107C9F710
:1001A0000E9449250C94A32F0C940000CF92DF925B
:1001B000EF92FF920F93CF93DF93CDB7DEB76097A7
:1001C0000FB6F894DEBF0FBECDBF002309F45AC0AE
:1001D00029873A874B875C876D877E878F87988BC7
:1001E00080E2801B4D855E856F8578891816B4F096
:1001F0001D821E821F821886992787FD90959095F3
:1002000081959F4F04C076956795579547958A9538
:10021000D2F749835A836B837C832CC06A017B01AC
:10022000002E04C0F694E794D794C7940A94D2F7AA
:10023000CD82DE82EF82F8866A017B0104C0CC0C9D
:10024000DD1CEE1CFF1C8A95D2F7D701C60149853B
:100250005A856B857C8504C076956795579547953B
:100260000A95D2F7842B952BA62BB72B89839A83DB
:10027000AB83BC8329813A814B815C816D817E8116
:100280008F81988560960FB6F894DEBF0FBECDBF04
:10029000DF91CF910F91FF90EF90DF90CF90089575
:1002A000CF92DF92EF92FF920F93CF93DF93CDB770
:1002B000DEB760970FB6F894DEBF0FBECDBF002348
:1002C00009F45AC029873A874B875C876D877E87F8
:1002D0008F87988B80E2801B49855A856B857C854A
:1002E0001816B4F019821A821B821C82992787FD86
:1002F0009095909581959F4F04C0440F551F661FA0
:10030000771F8A95D2F74D835E836F8378872CC0E1
:100310006A017B01002E04C0CC0CDD1CEE1CFF1C0E
:100320000A94D2F7C982DA82EB82FC826A017B01ED
:1003300004C0F694E794D794C7948A95D2F7D7016E
:10034000C6014D855E856F85788904C0440F551FB1
:10035000661F771F0A95D2F7842B952BA62BB72BF8
:100360008D839E83AF83B88729813A814B815C81DD
:100370006D817E818F81988560960FB6F894DEBF7F
:100380000FBECDBFDF91CF910F91FF90EF90DF9027
:10039000CF900895CF92DF92EF92FF92CF93DF93A9
:1003A000EC01882777FD8095982F0E94E11F6B0153
:1003B0007C0120E030E040E45FE30E94912020E0F7
:1003C00030E048E452E40E94461F0E94AE1FDC0168
:1003D000CB01C817D907E4F0C701B60120E030E02F
:1003E00040EA5FE30E94912020E030E048E452E4DC
:1003F0000E94461F20E030E040E85FE30E94DE1EDE
:100400000E94AE1FAB01BC0181E04C175D070CF4EC
:1004100080E090E0DF91CF91FF90EF90DF90CF9060
:1004200008956C597F4F0E94CA0108956456704028
:100430000E94CA010895CB01E0EBF0E02081206228
:1004400020830E9420220895CB01E0EBF0E0208180
:100450002F7D20830E9420220895CF93DF93EB010C
:100460001092700083E061E00E94652283E060E00A
:100470000E94A4229E01442737FD4095542F60E43A
:100480007FE180E090E00E94452C822F91E09093E4
:10049000B00099E09093B1002093B30063E00E9414
:1004A000042C8093B400DF91CF910895AF92BF9256
:1004B000CF92DF92EF92FF920F931F93CF93DF9330
:1004C000EC015B0169017A0163E270E00E942D0298
:1004D000CE016EEA7DE00E941B02CE0166ED76E061
:1004E0000E94240200E110E0CE0166EF71E00E945C
:1004F0001B02CE01B7FE03C06CED74E002C060E9E0
:1005000071E00E942402AA0CBB1C0150104061F74C
:1005100000E210E0CE0166EF71E00E941B02CE0106
:10052000F7FE03C06CED74E002C060E971E00E9468
:100530002402CC0CDD1CEE1CFF1C0150104051F7B6
:10054000CE0166EF71E00E941B02CE0160E070E018
:100550000E942402DF91CF911F910F91FF90EF90A5
:10056000DF90CF90BF90AF9008958F929F92AF92FF
:10057000BF92CF92DF92EF92FF920F931F93CF9390
:10058000DF93EC016A017B01490164E270E00E94A3
:100590002D0280E290E08819990904C0CC0CDD1C82
:1005A000EE1CFF1C8A95D2F7CE016AE67AE00E9423
:1005B0001B02CE0169E773E00E942402CE016CEBBE
:1005C00071E00E941B02CE016CEB71E00E942402DC
:1005D000AA24BB2421C083E0A816B10419F408E7BB
:1005E00013E002C00CEB11E0CE01B801F7FE07C02A
:1005F0000E941B02CE01B8010E94240206C00E9484
:100600002402CE01B8010E941B02CC0CDD1CEE1CA2
:10061000FF1C0894A11CB11CA814B904E4F2CE017B
:1006200060E070E00E942402DF91CF911F910F9152
:10063000FF90EF90DF90CF90BF90AF909F908F9002
:100640000895AF92BF92CF92DF92EF92FF920F93F5
:100650001F93CF93DF93EC016A017B01590164E2A0
:1006600070E00E942D0280E290E08A199B0904C08C
:10067000CC0CDD1CEE1CFF1C8A95D2F7CE0169E77D
:1006800073E00E941B02CE0169E773E00E9424021E
:10069000CE0169E773E00E941B0200E010E019C080
:1006A00069E773E0F7FE08C00E942402CE0169E703
:1006B00073E00E941B0207C00E941B02CE0169E783
:1006C00073E00E942402CC0CDD1CEE1CFF1C0F5FAB
:1006D0001F4FCE010A151B051CF360E070E00E945D
:1006E0002402DF91CF911F910F91FF90EF90DF9047
:1006F000CF90BF90AF900895CF92DF92EF92FF928C
:100700000F931F93CF93DF937C018B016A01B90193
:100710000E942D02E80100E010E00DC0688179819F
:10072000C70100FF03C00E94240202C00E941B02F6
:100730000F5F1F4F22960C151D0584F3C70160E063
:1007400070E00E942402DF91CF911F910F91FF90E2
:10075000EF90DF90CF900895AF92BF92CF92DF924B
:10076000EF92FF920F931F93CF93DF93EC016A01F7
:100770007B01590168E270E00E942D02CE0160E623
:1007800079E00E941B02CE0168E572E00E9424021B
:1007900080E290E08A199B0904C0CC0CDD1CEE1CA1
:1007A000FF1C8A95D2F700E010E015C0CE01F7FEDD
:1007B00003C060EB74E002C068E572E00E941B02B7
:1007C000CE0168E572E00E942402CC0CDD1CEE1C18
:1007D000FF1C0F5F1F4F0A151B0544F3DF91CF91DC
:1007E0001F910F91FF90EF90DF90CF90BF90AF904F
:1007F0000895AF92BF92CF92DF92EF92FF920F9344
:100800001F93CF93DF93EC016A017B01590166E2EC
:1008100070E00E942D02CE0168E273E20E941B028A
:10082000CE0164E971E10E94240200E010E015C0ED
:10083000F7FE06C00E941B02CE0160E476E005C010
:100840000E941B02CE0160E372E00E942402CC0CE5
:10085000DD1CEE1CFF1C0F5F1F4FCE0160E372E03A
:100860000A151B052CF30E941B02CE0160E070E00C
:100870000E942402DF91CF911F910F91FF90EF9082
:10088000DF90CF90BF90AF9008956093E2031092F5
:10089000E4030895F89482E08093B0008093B1005F
:1008A00094E69093B3001092B20080937000789415
:1008B0008093E3031092EF048091E20360E00E94D2
:1008C000652208951F920F920FB60F9211242F9355
:1008D0003F934F935F936F937F938F939F93AF93C8
:1008E000BF93EF93FF938091E2030E94F82220913F
:1008F000E5033091E6032F5F3F4F3093E6032093EB
:10090000E5039091EF04943818F095E09093E30399
:100910009091E3039330D1F0943020F4923009F0B9
:1009200059C006C0943061F1953009F053C04CC0F5
:10093000882309F04FC02091E5033091E603243667
:10094000310508F443C01092EF041CC0813009F057
:1009500041C09091EF04E92FF0E02091E503309140
:10096000E603EE0FFF1FEE51FC4F368325839F5F9A
:100970009093EF041092E6031092E50394E021C0F7
:100980008823B9F49091EF04E92FF0E02091E5037A
:100990003091E603EE0FFF1FEE51FC4F36832583A7
:1009A0009F5F9093EF041092E6031092E50393E0AB
:1009B00008C02091E5033091E6032536310550F05B
:1009C00095E09093E30306C0882321F41092E60398
:1009D0001092E5039091E403992329F0882311F400
:1009E0002D9A01C02D98FF91EF91BF91AF919F91EA
:1009F0008F917F916F915F914F913F912F910F90C8
:100A00000FBE0F901F9018951092700083E061E068
:100A10000E94652283E060E00E94A4220895AF92C4
:100A2000BF92CF92DF92EF92FF920F931F93CF93DB
:100A3000DF938B01DB011A96CD91DC911B978A81A4
:100A40009B8168E273E20E941102009709F47AC068
:100A50008091EF04843009F085C08C819D816AEC1F
:100A600078E00E941602009709F47CC08E819F8175
:100A700060E372E00E941102009709F473C0F8016C
:100A8000118610868FEF9FEFDC0184839583A68308
:100A9000B78381E090E0918380834FC08C819D81FA
:100AA00064E971E10E941602009709F44BC0269692
:100AB00023E0A22EB12CCC24DD24760188819981FB
:100AC00060E372E00E9411020097E1F18A819B814C
:100AD00060E476E00E941602009769F0CC0CDD1C01
:100AE000EE1CFF1C81E090E0A0E0B0E0C82AD92A0B
:100AF000EA2AFB2A0CC08A819B8160E372E00E9493
:100B000016020097F9F0CC0CDD1CEE1CFF1CA2E0D5
:100B1000B0E0AA0EBB1E2496B3E4AB16B10471F686
:100B200080E290E0F80191878087C482D582E682D6
:100B3000F78281E090E09183808301E010E020E083
:100B400030E003C000E010E09801B801C901DF9176
:100B5000CF911F910F91FF90EF90DF90CF90BF90BA
:100B6000AF9008958091EF04843408F097CFEACFD6
:100B7000AF92BF92CF92DF92EF92FF920F931F93AB
:100B8000CF93DF938B018091EF048A3108F47EC00C
:100B9000DB011A96CD91DC911B9788819981B1E098
:100BA000843F9B0778F4FB01118610868FEF9FEF3F
:100BB000DC0184839583A683B78389E090E09183E9
:100BC00080835FC08A819B8160E679E00E94110288
:100BD000009709F45BC0269662E0A62EB12CCC24C7
:100BE000DD24760130C0FE0132978081918168E575
:100BF00072E00E941602009779F18881998160EB7A
:100C000074E00E941102009769F0CC0CDD1CEE1C10
:100C1000FF1C81E090E0A0E0B0E0C82AD92AEA2ACF
:100C2000FB2A0CC08881998168E572E00E9411025C
:100C3000009761F1CC0CDD1CEE1CFF1CA2E0B0E0C3
:100C4000AA0EBB1E24968091EF0495012F5F3F4FA3
:100C500090E0281739073CF2C501019795958795D3
:100C6000F801918780878C3091051CF411861086DD
:100C70000DC0C482D582E682F78282E090E0918343
:100C8000808301E010E020E030E003C000E010E0ED
:100C90009801B801C901DF91CF911F910F91FF9089
:100CA000EF90DF90CF90BF90AF900895AF92BF923A
:100CB000CF92DF92EF92FF920F931F93CF93DF9328
:100CC0008B018091EF048A3108F487C0DB011A960A
:100CD000CD91DC911B9788819981B3E080329B078D
:100CE00078F4FB01118610868FEF9FEFDC0184837F
:100CF0009583A683B78389E090E09183808368C061
:100D00008A819B816CEA7DE00E941102009709F4C0
:100D100064C08C819D816CEA7DE00E941102009785
:100D200009F45BC02896A3E0AA2EB12CCC24DD24C4
:100D3000760130C0FE0132978081918166EB73E0CD
:100D40000E941602009779F18881998160E679E026
:100D50000E941102009769F0CC0CDD1CEE1CFF1CF8
:100D600081E090E0A0E0B0E0C82AD92AEA2AFB2A74
:100D70000CC0888199816CEB72E00E94110200978F
:100D800061F1CC0CDD1CEE1CFF1CA2E0B0E0AA0E51
:100D9000BB1E24968091EF0495012F5F3F4F90E09A
:100DA000281739073CF2C501019795958795F801F9
:100DB000918780878C3091051CF4118610860DC0B8
:100DC000C482D582E682F78289E090E091838083B5
:100DD00001E010E020E030E003C000E010E0980106
:100DE000B801C901DF91CF911F910F91FF90EF9052
:100DF000DF90CF90BF90AF9008956F927F928F92C7
:100E00009F92AF92BF92CF92DF92EF92FF920F9399
:100E10001F93CF93DF934B018091EF04823208F44C
:100E200076C0DB011A96CD91DC911B978A819B815C
:100E30006EE571E00E941102009709F468C016E0A7
:100E4000A12EB12CAC0EBD1E02E010E0CC24DD249E
:100E5000760132C0E5012297888199816EE977E0B9
:100E60000E941102009769F0CC0CDD1CEE1CFF1CE7
:100E700081E090E0A0E0B0E0C82AD92AEA2AFB2A63
:100E80000CC0888199816EEE72E00E941102009779
:100E9000F1F1CC0CDD1CEE1CFF1CD5018D919C9159
:100EA0006EE571E00E941602E4E0F0E0AE0EBF1EB7
:100EB000009769F00E5F1F4F38010894611C711C88
:100EC0008091EF0490E06816790624F201C0830156
:100ED0000150104015950795D40119961C930E9357
:100EE0001897003111052CF419961C921E92189730
:100EF0000EC0F401C482D582E682F7828AE090E0D7
:100F00009183808301E010E020E030E003C000E046
:100F100010E09801B801C901DF91CF911F910F91A5
:100F2000FF90EF90DF90CF90BF90AF909F908F9009
:100F30007F906F9008956F927F928F929F92AF9261
:100F4000BF92CF92DF92EF92FF920F931F93CF93B6
:100F5000DF93FB013A0149015801DA012D913C91DF
:100F6000119784859585281739070CF054C0C9015D
:100F7000880F991F0284F385E02DE80FF91F808107
:100F800091817C0120FF05C0CC24DD2404E610E023
:100F900005C091E0C92ED12C0CE91FEFB501600FFF
:100FA000711FC7010E94CA010097C1F4E501CC0F6F
:100FB000DD1FBE01600F711FC7010E94CA010097AB
:100FC00081F4BE016A0D7B1D600F711FC7010E9475
:100FD000CA010097E1F023E030E005C021E030E0F5
:100FE00002C022E030E0F40180819181019691837A
:100FF00080838217930794F011821082D3018D9120
:101000009C911197019611969C938E9307C0CC24C6
:10101000CA94DC2C03C001E0C02ED12CC601DF91A4
:10102000CF911F910F91FF90EF90DF90CF90BF90E5
:10103000AF909F908F907F906F9008952F923F92E6
:101040004F925F926F927F928F929F92AF92BF92D8
:10105000CF92DF92EF92FF920F931F93CF93DF9384
:10106000CDB7DEB727970FB6F894DEBF0FBECDBF62
:101070002C016B018091EF048D3008F486C081E073
:1010800090E09C838B831A82198273E0E72EF12C07
:10109000EC0EFD1EC201B601A7013E010894611CC1
:1010A000711C930109E713E00E949B07009709F068
:1010B0006CC0C201B601A70193010E949B07813059
:1010C000910509F062C0C201B601A70193010E9417
:1010D0009B07009709F059C01E821D82882499241D
:1010E0005401EF822F2C362C672C35C0C201B6017B
:1010F0004F81522D232D362D09E713E00E949B07C7
:101100007C01C201B6014F81522D232D362D0E9444
:101110009B0721E0E216F10479F40097B1F5880C01
:10112000991CAA1CBB1C81E090E0A0E0B0E0882ADA
:10113000992AAA2ABB2A0AC0E114F10431F58130A8
:10114000910519F5880C991CAA1CBB1CAD81BE81A8
:101150001196BE83AD832091EF0430E08B819C819A
:10116000821793071CF28D819E81F60191878087FB
:1011700084829582A682B78283E090E09183808307
:1011800001E010E020E030E003C000E010E0980152
:10119000B801C90127960FB6F894DEBF0FBECDBFC8
:1011A000DF91CF911F910F91FF90EF90DF90CF9043
:1011B000BF90AF909F908F907F906F905F904F9077
:1011C0003F902F9008952F923F924F925F926F928F
:1011D0007F928F929F92AF92BF92CF92DF92EF92C7
:1011E000FF920F931F93CF93DF93CDB7DEB728976E
:1011F0000FB6F894DEBF0FBECDBF9E838D833B013B
:10120000DB011C968D919C911D97181619060CF008
:10121000C1C081E090E09C838B831A96ED90FC9096
:101220001B97F701828193816AE67AE00E9411029E
:10123000009709F4AFC082E090E09C838B83D701D4
:1012400014968D919C91159769E773E00E941602A0
:10125000009709F49FC083E090E09C838B831A82FF
:101260001982A3E0EA2EF12CEC0EFD1E8D819E81E9
:10127000B301A7016E010894C11CD11C96010CEBAF
:1012800011E00E949B07009709F084C08D819E8128
:10129000B301A70196010E949B078130910509F0D7
:1012A00079C018861F8288249924540117012601C9
:1012B00057C08D819E81B301A10192010CEB11E019
:1012C0000E949B077C01EF81F885E330F10559F41A
:1012D0008D819E81B301A10192010E949B07E816B6
:1012E000F90609F057C08D819E81B301A1019201D9
:1012F0000CEB11E00E949B076C018F819885833075
:10130000910551F48D819E81B301A10192010E944A
:101310009B07C816D906F1F5E114F10489F491E0B0
:10132000C916D104B9F5880C991CAA1CBB1C81E014
:1013300090E0A0E0B0E0882A992AAA2ABB2A0BC034
:1013400091E0E916F10431F5C114D10419F5880CC6
:10135000991CAA1CBB1CAF81B8851196B887AF83B6
:101360008B819C81F30124853585821793070CF4CA
:10137000A0CF8F8198859187808784829582A6826D
:10138000B78284E090E09183808301E010E020E068
:1013900030E003C000E010E09801B801C9012896D0
:1013A0000FB6F894DEBF0FBECDBFDF91CF911F9176
:1013B0000F91FF90EF90DF90CF90BF90AF909F90F4
:1013C0008F907F906F905F904F903F902F900895F7
:1013D0008F929F92AF92BF92CF92DF92EF92FF9245
:1013E0000F931F93CF93DF9300D000D0CDB7DEB71C
:1013F0007B01FB0102851385F801828193816EEAEE
:101400007DE00E941102009709F483C0F8018481F5
:10141000958166ED76E00E941102009709F479C08B
:10142000B6E0CB2ED12CC00ED11E83E0A82EB12C5D
:1014300020E030E040E050E010E000E09924882413
:10144000F6018081918166EF71E029833A834B83B5
:101450005C830E941102009709F45BC0F60182814F
:1014600093816CED74E00E94160229813A814B81D0
:101470005C81009749F0612F702F892D982D01E034
:101480000E945001216018C0F6018281938160E9B9
:1014900071E029833A834B835C830E941602298181
:1014A0003A814B815C810097A1F1612F702F892DCA
:1014B000982D01E00E945001162F072F982E892E9B
:1014C00082E090E0A80EB91EE4E0F0E0CE0EDF1E50
:1014D000F3E6AF16B10409F0B3CFF70124833583E7
:1014E00046835783612F702F892D982D00E20E942B
:1014F000D600F7012283338387E090E091838083D5
:1015000080E390E09187808701E010E020E030E008
:1015100003C000E010E09801B801C9010F900F90DE
:101520000F900F90DF91CF911F910F91FF90EF904F
:10153000DF90CF90BF90AF909F908F9008958F9243
:101540009F92AF92BF92CF92DF92EF92FF920F9352
:101550001F93CF93DF938B018091EF04823209F0C8
:10156000A9C0DB011A96CD91DC911B978A819B81E2
:1015700068E572E00E941102009709F49BC0E091B7
:10158000EF04F0E03197EE0FFF1FEC0FFD1F80819D
:10159000918168E572E00E941102009709F48AC007
:1015A000F801118610868FEF9FEFDC01848395830D
:1015B000A683B78388E090E09183808364C08091A4
:1015C000EF04813208F464C0D50114968D919C918A
:1015D000159760EA7FE00E941602009709F458C050
:1015E000E501269633E0832E912CCC24DD24760170
:1015F0008881998168E572E00E941102009709F4E0
:1016000047C08A819B8160E476E00E9416020097C1
:1016100069F0CC0CDD1CEE1CFF1C81E090E0A0E02A
:10162000B0E0C82AD92AEA2AFB2A0CC08A819B8109
:1016300066E272E00E941602009751F1CC0CDD1CAC
:10164000EE1CFF1CA2E0B0E08A0E9B1E2496B3E2C3
:101650008B16910469F6F501EA5BFF4F8081918159
:1016600068E572E00E941102009791F080E190E03D
:10167000F80191878087C482D582E682F78288E06C
:1016800090E09183808301E010E020E030E003C02F
:1016900000E010E09801B801C901DF91CF911F91DE
:1016A0000F91FF90EF90DF90CF90BF90AF909F9001
:1016B0008F900895F801A284B384D50112968D917C
:1016C0009C91139760E47FE10E941102009709F05A
:1016D00076CFDECF8F929F92AF92BF92CF92DF9262
:1016E000EF92FF924B01BA0180E090E00E94DF1F71
:1016F0006B017C01B40180E090E00E94DF1F4B0190
:101700005C012DEC3CEC4CE45FE30E9491209B01DA
:10171000AC01C701B6010E94421F87FD17C0C70177
:10172000B6012DEC3CEC4CE45FE30E9491209B0160
:10173000AC01C501B4010E94421F992787FD909515
:101740008827990F881F9927019602C080E090E0B2
:10175000FF90EF90DF90CF90BF90AF909F908F90D1
:1017600008956F927F928F929F92AF92BF92CF9285
:10177000DF92EF92FF920F931F93CF93DF933C0181
:101780008B01FB0184849584F6E08F1691040CF4A0
:1017900047C0880C991CC6E0D0E0A5ECCA2EADE984
:1017A000DA2EACE1EA2EA1E8FA2E25C082859385D7
:1017B000FE013497E80FF91F60817181FC01EC0F85
:1017C000FD1F40815181C3010E946A0B5C01C7016A
:1017D000B60123E931E040E051E00E94E52BDC0155
:1017E000CB016501EE24D7FCE094FE2CC826D92657
:1017F000EA26FB262296F801C815D905B9F6C48257
:10180000D582E682F78280E290E0918780878FEF31
:101810009FEF9183808301E010E020E030E003C07F
:1018200000E010E09801B801C901DF91CF911F914C
:101830000F91FF90EF90DF90CF90BF90AF909F906F
:101840008F907F906F9008950F931F93CF93DF93A6
:101850008C01EB0187EE93E09B878A878091EF04F0
:101860008C871D868091E303853009F062C0C80132
:101870000E940F05DC01CB010097A105B10509F01D
:101880005BC0C801BE010E94B805DC01CB01009716
:10189000A105B10509F050C0C801BE010E9456065D
:1018A000DC01CB010097A105B10509F045C0C801D5
:1018B000BE010E94FD06DC01CB010097A105B10528
:1018C00009F03AC0C801BE010E941E08DC01CB012C
:1018D0000097A105B10581F5C801BE010E94E3088A
:1018E000DC01CB010097A105B10531F5C801BE01AE
:1018F0000E94E809DC01CB010097A105B105E1F4E4
:10190000C801BE010E949F0ADC01CB010097A1051E
:10191000B10591F4C801BE010E94B10BDC01CB01FD
:101920000097A105B10541F482E08093E303109292
:10193000EF0480E090E002C081E090E0DF91CF9181
:101940001F910F9108950E9445040895CF92DF9250
:10195000EF92FF920F931F93CF93DF93CDB7DEB734
:10196000EF970FB6F894DEBF0FBECDBF7C016B01C1
:101970008A018FEF4F3F580711F400E010E0C701D4
:1019800060E071E00E946B2A0115110529F0073013
:10199000110509F0ACC058C0CE01C99660E070E0F6
:1019A0004AE00E941B2BC701BE01675C7F4F0E946B
:1019B000AC2BCE01C9960E94D92BC70161E071E022
:1019C0000E94EE29D6011E966C916F5DCE01C296E3
:1019D0000E944C2BC701BE016E5C7F4F0E94FE2906
:1019E000CE01C2960E94D92BC70161E071E00E942E
:1019F000EE2900E010E01DC0C801880F991FD60134
:101A00001C96ED91FC911D97E80FF91F6081718183
:101A10006F5DCE018B960E944C2BC701BE01655DA8
:101A20007F4F0E94FE29CE018B960E94D92B0F5F1B
:101A30001F4FF6018685978508171907ECF28BE191
:101A400096E063E071E099C0D60114966D917C91A7
:101A500015978BE196E04AE050E00E944626CE01C1
:101A6000849667E070E04AE00E941B2BC701BE012C
:101A70006C5D7F4F0E94AC2BCE0184960E94D92BC7
:101A8000C70161E071E00E94EE29F6016481758171
:101A9000CE014D964AE00E94EA2AC701BE01635E6C
:101AA0007F4F0E94FE29CE014D960E94D92BC7017F
:101AB00061E071E00E94EE29D60116964D915D918C
:101AC0006D917C911997CE0146962AE00E94B82A22
:101AD000C701BE016A5E7F4F0E94FE29CE01469675
:101AE0000E94D92B8BE196E067E071E046C0CE0101
:101AF0000F96B8014AE00E941B2BC701BE01615F2F
:101B00007F4F0E94AC2BCE010F960E94D92BC701AC
:101B100061E071E00E94EE29F60162857385CE01D5
:101B200008964AE00E941B2BC701BE01685F7F4FE9
:101B30000E94FE29CE0108960E94D92BC70161E0C0
:101B400071E00E94EE29D60116964D915D916D913E
:101B50007C911997CE0101962AE00E94B82AC7010C
:101B6000BE016F5F7F4F0E94FE29CE0101960E9449
:101B7000D92B8BE196E061E171E00E94F526C70167
:101B8000EF960FB6F894DEBF0FBECDBFDF91CF91B9
:101B90001F910F91FF90EF90DF90CF9008952F92BB
:101BA0003F924F925F926F927F928F929F92AF92ED
:101BB000BF92DF92EF92FF920F931F93CF93DF9329
:101BC000CDB7DEB7C651D1400FB6F894DEBF0FBE19
:101BD000CDBF1C013B01CB0160E070E00E9460279B
:101BE000DC01FC90B0EDFB0E8BE196E06F2D4AE03E
:101BF00050E00E947526FF2009F08CC0C30161E00F
:101C000070E00E946027FC0180818D3251F0C30199
:101C100061E070E00E946027DC01DC90BFEDDB0E2C
:101C200002C0B3E0DB2EC30162E070E00E946027D7
:101C3000FC01108111528BE196E0612F4AE050E0E7
:101C40000E9475268BE196E06D2D4AE050E00E94DF
:101C50007526FE013F9688E091E0DF019C011D9210
:101C600021503040E1F705E0412E552463E0862EF7
:101C7000912C840C951CA2E3AA2EB12C23C0C30185
:101C8000602F70E00E946027DC011C918BE196E0E0
:101C9000612F0E948325F7013597EE0FFF1F21E08A
:101CA00030E02C0F3D1FE20FF31F812F90E0819752
:101CB0008A9D90018B9D300D9A9D300D11243787A0
:101CC00026870F5FE02EFF248E149F04C4F68BE15D
:101CD00096E06DE171E00E94F52610E04101089464
:101CE000811C911C72010894E108F10810C0C40124
:101CF000BE01615F7F4FA70126E230E00E947C03B6
:101D000068EC70E080E090E00E94C7211F5F1D1525
:101D100071F7BFC00E94ED10BC018BE196E04AE074
:101D200050E00E94D32612E008C0C3010E94602741
:101D3000DC018C918D3251F01F5F612F70E0F30157
:101D4000848195816817790780F301C0012FCE0146
:101D50000896B30142E050E0202F30E00E94652B4E
:101D6000CE0108960E9486274B015C01CE010896A1
:101D70000E94D92B402F50E04F5F5F4FD301149644
:101D80002D913C911597CE010196B3010E94652BD0
:101D9000CE0101960E948627162F072FE82ED92EF6
:101DA000CE0101960E94D92B8BE196E0B4014AE066
:101DB00050E00E94D3268BE196E0412F502F6E2DEC
:101DC0007D2D2AE030E00E943226B1E0FB1681F43E
:101DD0008BE196E061E271E00E94F526C101019677
:101DE000412F502F6E2D7D2D94010E94F90351C07B
:101DF000E7E0FE1681F48BE196E067E071E00E9477
:101E0000F526C1010196B401212F302F4E2D5D2DF5
:101E10000E9456023EC0F2E0FF1691F48BE196E07C
:101E200065E271E00E94F526A401662757FD6095E2
:101E3000762FC1010196212F302F0E94AC0329C0BB
:101E400023E0F21691F48BE196E06AE271E00E94E1
:101E5000F526A401662757FD6095762FC1010196EE
:101E6000212F302F0E94210314C034E0F31689F48F
:101E70008BE196E06EE271E00E94F526A4016627F0
:101E800057FD6095762FC1010196212F302F0E94BA
:101E9000B502CA5EDE4F0FB6F894DEBF0FBECDBFEF
:101EA000DF91CF911F910F91FF90EF90DF90BF9046
:101EB000AF909F908F907F906F905F904F903F90EA
:101EC0002F900895AF92BF92CF92DF92EF92FF9240
:101ED0000F931F93CF93DF93CDB7DEB727970FB63E
:101EE000F894DEBF0FBECDBF8C015B018BE196E0A5
:101EF00062E371E00E94F526F02EE12EC8010E94F7
:101F00004A0422E0C22ED12CC00ED11E8F2D9E2D50
:101F1000B6010E94240C009731F1F801668577859F
:101F20008BE196E04AE050E00E94D326F8018685D6
:101F30009785803191059CF142815381CE010196B4
:101F4000B8010E94A60CC501BE016F5F7F4F0E94C1
:101F5000AC2BCE0101960E94D92B80EF94E00E9419
:101F6000791000E01DC00E94B921DC01CB01F8010D
:101F70004089518962897389841B950BA60BB70B25
:101F80008131F7E29F07F0E0AF07F0E0BF0708F408
:101F9000BDCF80EF94E00E94791002E001C001E023
:101FA0008F2D9E2D0E9404058BE196E065E471E083
:101FB0000E94F526802F27960FB6F894DEBF0FBE3D
:101FC000CDBFDF91CF911F910F91FF90EF90DF90E8
:101FD000CF90BF90AF900895CF93DF93C091F3045B
:101FE000C13049F0C13018F0C23099F40DC0809171
:101FF000F00460E00CC0D091F0048D2F0E94F82214
:10200000682F6C278D2F03C08091F00461E00E943F
:10201000A422C091F404C13049F0C13018F0C2309C
:1020200099F40DC08091F10460E00CC0D091F104EE
:102030008D2F0E94F822682F6C278D2F03C080916E
:10204000F10461E00E94A422DF91CF910895CF9323
:10205000DF93EC01862F688349831B821C8261E039
:102060000E946522898161E00E946522DF91CF9103
:102070000895CF93DF9321E0FC012283C9E3D5E0EB
:10208000CE0140E85AE166E070E00E947815CE018A
:102090006CEE7FE02FEF3FEFA9010E948A15DF91E0
:1020A000CF910895CF93DF93FC011282C9E3D5E06D
:1020B000CE010E94A615CE0140E45BE46CE470E022
:1020C0000E947815DF91CF910895CF93DF9321E09F
:1020D000FC012283C9E3D5E0CE0140E85AE166E085
:1020E00070E00E947815CE010E948015DF91CF919B
:1020F00008951F93CF93DF93EC0112E0888160E095
:102100000E94A422898160E00E94A42262E370E020
:1021100080E090E00E94C721888161E00E94A422B3
:10212000898161E00E94A42262E370E080E090E097
:102130000E94C721115011F7DF91CF911F9108958F
:10214000CF93DF93EC018B81882319F4888160E0C1
:1021500002C0888161E00E94A4228C81882319F446
:10216000898160E002C0898161E00E94A422DF9140
:10217000CF910895CF93DF93EC016B834C83623052
:1021800011F0662379F4423031F0623011F06623A9
:1021900049F4442339F4CE010E945210CE010E942A
:1021A000A01006C08A81882319F4CE010E94651010
:1021B000DF91CF910895E0913D06F0913E0680E0D9
:1021C00090E008C0029620813181820F931F028027
:1021D000F381E02D3097B1F708950F931F93CF93BC
:1021E000DF9300D0CDB7DEB780913B0690913C06DF
:1021F0008E010F5F1F4F009719F40F53164008C050
:10220000081B190B1A8309830E94DB10080F191F82
:102210001A83098389819A810F900F90DF91CF9162
:102220001F910F9108952091370530913805281797
:102230003907B9F49091F5048091F6049817A1F04C
:10224000E091F504F0E0E950FB4F80812091F50426
:1022500030E02F5F3F4F2F7330702093F50490E0F4
:1022600008958FEF9FEF08958FEF9FEF08952091CE
:102270003705309138052817390771F49091F50426
:102280008091F604981759F0E091F504F0E0E950D8
:10229000FB4F808190E008958FEF9FEF08958FEFBF
:1022A0009FEF089520913705309138052817390799
:1022B00039F48FB7F8941092F6041092F5048FBF9A
:1022C000089520913705309138052817390771F4A2
:1022D0008091F6042091F50490E0805C9F4F821B72
:1022E000910960E470E00E94102C089580E090E075
:1022F000089520E001972FEF8F3F9207D9F70895B7
:10230000FC0180913705909138058E179F0781F069
:10231000838D8E7F838F8FB7F8941092F60410927E
:10232000F504F0933805E09337058FBF81E00895F9
:1023300080E00895EF92FF920F931F93CF93DF9366
:10234000EC018B8DEE85FF859D8581FF04C080812A
:10235000892329F448C08081892309F044C08B89EE
:102360009C890E94791128E0E22EF12C01E010E016
:102370008D899E890E947911EE85FF8580819D85DA
:10238000892311F0102B03C0802F80951823000F94
:102390000894E108F108E114F10451F78F89988D50
:1023A0000E9479118B8D81FD10958091F60420910A
:1023B000F50490E001968F73907030E082179307D8
:1023C00079F0E091F604F0E0E950FB4F1083809142
:1023D000F60490E001968F7390708093F60403C02A
:1023E0008B8D81608B8FDF91CF911F910F91FF902B
:1023F000EF900895FC01A189B2899089662329F4A0
:102400002C91892F8095822302C08C91892B8C93EB
:102410000895DF92EF92FF920F931F93CF93DF9374
:10242000EC01F62E898D9A8D009739F481E090E0C9
:102430009B838A8380E090E047C0EFB6F8948B8D51
:1024400061E081FF60E0CE010E94FA11898D9A8DD2
:1024500005960E9479118B8D08E010E0DD24D3945D
:1024600081FF15C08D2D8F2119F0CE0160E002C0D3
:10247000CE0161E00E94FA11898D9A8D0E94791136
:10248000DD0C0150104071F7CE0160E014C08D2DBD
:102490008F2119F0CE0161E002C0CE0160E00E9400
:1024A000FA11898D9A8D0E947911DD0C015010402E
:1024B00071F7CE0161E00E94FA11EFBE898D9A8D0D
:1024C0000E94791181E090E0DF91CF911F910F91EF
:1024D000FF90EF90DF900895809137059091380537
:1024E000009711F00E949A1108951F920F920FB653
:1024F0000F9211242F933F934F935F936F937F938A
:102500008F939F93AF93BF93EF93FF930E946C12AF
:10251000FF91EF91BF91AF919F918F917F916F91BB
:102520005F914F913F912F910F900FBE0F901F9091
:1025300018951F920F920FB60F9211242F933F936D
:102540004F935F936F937F938F939F93AF93BF93BB
:10255000EF93FF930E946C12FF91EF91BF91AF91A7
:102560009F918F917F916F915F914F913F912F91AB
:102570000F900FBE0F901F9018951F920F920FB6DD
:102580000F9211242F933F934F935F936F937F93F9
:102590008F939F93AF93BF93EF93FF930E946C121F
:1025A000FF91EF91BF91AF919F918F917F916F912B
:1025B0005F914F913F912F910F900FBE0F901F9001
:1025C00018951F93CF93DF93EC01162F862F61E0B0
:1025D0000E946522812F61E00E94A422812F90E059
:1025E000FC01E65DFE4FE491E88BFC01EA5EFE4FE4
:1025F000E491F0E0EE0FFF1FEE5FFE4F85919491A6
:10260000898B9A8BDF91CF911F9108951F93CF9360
:10261000DF93EC01162F862F60E00E9465228B8DE0
:1026200081FD04C0812F61E00E94A4221C87812FBC
:1026300090E0FC01E65DFE4FE491ED87FC01EA5E6F
:10264000FE4FE491F0E0EE0FFF1FE45FFE4F859137
:1026500094918E879F87DF91CF911F9108951F934B
:10266000CF93DF93EC01162F1B821A8288EE93E042
:10267000A0E0B0E08C839D83AE83BF8386E591E0CC
:10268000998388831C8A1B8A1E8A1D8A188E1F8A3A
:102690001A8E198E8B8D2170220F8C7F822B8B8F3F
:1026A000CE01642F0E94E112CE01612F0E94061319
:1026B000DF91CF911F910895CF92DF92EF92FF9219
:1026C000CF93DF93EC016A017B011A8E198E188E6D
:1026D0001F8A1E8A1D8A1C8A1B8A20E030E0A901FD
:1026E000440F551F420F531F440F551F440F551FD2
:1026F000FA01E859FF4F85919591A591B4918C15F8
:102700009D05AE05BF05E9F4FA01E459FF4F859137
:1027100094918B8B9C8BFA01E259FF4F8591949198
:102720008D8B9E8BFA01E059FF4F859194918F8B91
:10273000988F4E585F4FFA0185919491898F9A8FA7
:1027400006C02F5F3F4F2C30310509F0C8CF8F896D
:10275000988D009709F448C09C85963108F040C0D8
:1027600020916800983020F09E3020F082E003C075
:1027700084E001C081E0822B809368005C85583042
:1027800048F05E3060F05631C8F1E0E0F0E0A0E0E3
:10279000B0E009C0EDE6F0E0ADE6B0E004C0EBE685
:1027A000F0E0ABE6B0E04C91583040F481E090E0CE
:1027B00002C0880F991F5A95E2F710C0252F30E00C
:1027C0005E3018F42850304002C02E50304081E076
:1027D00090E002C0880F991F2A95E2F7842B80832E
:1027E000898D9A8D0E947911CE010E948011DF910E
:1027F000CF91FF90EF90DF90CF900895ECE6F0E05E
:10280000ACE6B0E0D0CFFC014485463150F548300D
:1028100028F04E3030F0ECE6F0E005C0EDE6F0E0F8
:1028200002C0EBE6F0E05081483040F481E090E0F7
:1028300002C0880F991F4A95E2F710C0242F30E09C
:102840004E3018F42850304002C02E50304081E005
:1028500090E002C0880F991F2A95E2F780958523A2
:102860008083089526E531E0FC01318320830E94B6
:10287000031408959C01CB01B9010E945E28892FA1
:102880008095881F8827881F08950F931F93CF93E3
:10289000DF938C016115710521F061307105E1F460
:1028A0000EC066E771E00E949F2ACCE8D0E0C80124
:1028B00067E771E00E94EE292197C9F70DC066E72E
:1028C00071E00E949F2ACFE0D0E0C80167E771E085
:1028D0000E94EE292197C9F7DF91CF911F910F91A7
:1028E00008952F923F924F925F926F927F928F92B4
:1028F0009F92AF92BF92CF92DF92EF92FF920F938F
:102900001F93CF93DF930F92CDB7DEB74C015B01DE
:102910003901FB010481158101501040EE24EA9435
:10292000FE2C4424552422243324CC24DD2414C03A
:102930002016310671F40894C11CD11C270108949B
:10294000411C511C71012016310619F40894E11C38
:10295000F11C0894211C311C0215130564F06C1441
:102960007D0464F0C501B10149830E944F2749816C
:102970008417F1F6E0CF6C147D043CF4C401B5017A
:10298000A20197010E94652B05C0C40166E771E0B2
:102990000E946B2AC4010F90DF91CF911F910F917C
:1029A000FF90EF90DF90CF90BF90AF909F908F906F
:1029B0007F906F905F904F903F902F9008951F925F
:1029C0000F920FB60F9211242F933F934F935F9363
:1029D0006F937F938F939F93AF93BF93EF93FF93E7
:1029E000E0913D05F0913E050995FF91EF91BF9172
:1029F000AF919F918F917F916F915F914F913F9197
:102A00002F910F900FBE0F901F901895FC01A3E01F
:102A1000440F551F661F771FAA95D1F7403080E0FD
:102A2000580781E0680780E0780714F481E010C05F
:102A300033E075956795579547953A95D1F74030AE
:102A400080E0580781E0680780E078071CF482E0A6
:102A5000828337C023E075956795579547952A95EA
:102A6000D1F7403080E0580781E0680780E07807C0
:102A700014F483E0EDCF92E07595679557954795EF
:102A80009A95D1F7403080E0580781E0680780E0F0
:102A9000780714F484E0DCCF82E07595679557954C
:102AA00047958A95D1F785E08283403080E05807CA
:102AB00081E0680780E0780724F04FEF5FEF60E087
:102AC00070E08FB78383F8945183408350938700DD
:102AD0004093860083818FBF80918100887F80939F
:102AE0008100809181009281892B809381000895DB
:102AF0001092800020E1209381000E940615089525
:102B0000E1E8F0E02081DC0112968C911297282BED
:102B1000208308950F931F93CF93DF93EC018B01D4
:102B2000BA01A901141615061606170614F40E9418
:102B300006151D830C8381E080936F00CE010E94F7
:102B40008015DF91CF911F910F910895E1E8F0E09A
:102B50008081887F80830895CF92DF92EF92FF92E9
:102B60000F931F93CF93DF937C0120E00E942F13DC
:102B7000C7014C9668E070E00E94A30CE701E09664
:102B800029E7C22E21E0D22ECE01B6010E946B2A87
:102B90008701075C1F4FC801B6010E946B2ACE0156
:102BA00060E070E00E944514C80161E070E00E949E
:102BB0004514F70117AA10AEDF91CF911F910F9125
:102BC000FF90EF90DF90CF900895CF93DF93D82FB1
:102BD000C92F40E855E260E070E00E945C138D2F41
:102BE0009C2F0E9480118D2F9C2F0E945211DF91EB
:102BF000CF9108954F925F926F927F928F929F92A2
:102C0000AF92BF92CF92DF92EF92FF920F931F93FA
:102C1000CF93DF93CDB7DEB762970FB6F894DEBFE0
:102C20000FBECDBF8C014B012A01CB0160E070E0EB
:102C30000E946328CC24C394882309F4CC2430E375
:102C4000A32EB12CA00EB11EC50160E070E00E9461
:102C500045140E94B9216F87788B898B9A8BEE245B
:102C6000FF24D02E012F662457FC6094762C8D2DE6
:102C7000902F0E946111009701F18D2D902F0E94DD
:102C80001311182FCC2019F0843209F449C024E61E
:102C9000E216F10454F4C501B7010E946027FC015B
:102CA00010830894E11CF11C08C08BE196E06AE7F0
:102CB00071E00E94F526EE24FF24CE010896B401AF
:102CC0000E94C32BCE010196B5010E94C32BCE01F9
:102CD0000896BE016F5F7F4F0E943A14882311F05F
:102CE00011E0C11010E0CE0101960E94D92BCE0157
:102CF00008960E94D92B112399F40E94B921DC0176
:102D0000CB012F85388949895A89821B930BA40BE3
:102D1000B50B481659066A067B0608F0A8CF01C015
:102D200011E08D2D902F0E945211812F62960FB6C7
:102D3000F894DEBF0FBECDBFDF91CF911F910F91F1
:102D4000FF90EF90DF90CF90BF90AF909F908F90CB
:102D50007F906F905F904F900895FF920F931F9315
:102D6000CF93DF93CDB7DEB727970FB6F894DEBFCA
:102D70000FBECDBF8C010E945211C80163E871E003
:102D80000E94F2266CE271E080E090E00E94C72190
:102D9000CE01019667E871E00E946B2AC801BE016E
:102DA0006F5F7F4F48EB5BE00E94FA15F82ECE0173
:102DB00001960E94D92BFF2021F081E0F80187AB1A
:102DC00002C0F80117AAF80187A927960FB6F89450
:102DD000DEBF0FBECDBFDF91CF911F910F91FF904E
:102DE0000895CF93DF93EC016BE871E00E94F52624
:102DF0006CE271E080E090E00E94C7211FAA80E0B1
:102E0000DF91CF910895CF93DF93EC018FA98823B1
:102E100019F4CE010E94AD1664E670E080E090E007
:102E20000E94C721CE0160E971E00E94F2261FAA2C
:102E3000DF91CF910895FF920F931F93CF93DF936C
:102E4000CDB7DEB727970FB6F894DEBF0FBECDBF64
:102E50008C01FC0187A9882349F0C8010E94F11662
:102E600068EE73E080E090E00E94C721CE010196F9
:102E700068E971E00E946B2AC801BE016F5F7F4F55
:102E800048EB5BE00E94FA15F82ECE0101960E94F5
:102E9000D92BFF2021F081E0F80180AF02C0F801BA
:102EA00010AEF80180AD27960FB6F894DEBF0FBEC6
:102EB000CDBFDF91CF911F910F91FF900895CF93D8
:102EC000DF93EC01C99661E070E00E9445148FA980
:102ED000882319F4CE010E94AD1668EE73E080E0FD
:102EE00090E00E94C7218BE196E064EA71E00E94C5
:102EF000F526CE010E945211CE0164EA71E00E94D3
:102F0000F52664EF71E080E090E00E94C7218BE13C
:102F100096E06FEB71E00E94F526CE010E945211FF
:102F2000CE016FEB71E00E94F52664EF71E080E066
:102F300090E00E94C7218BE196E06AED71E00E946B
:102F4000F526CE010E945211CE016AED71E00E9479
:102F5000F52664EF71E080E090E00E94C7218BE1EC
:102F600096E068EE71E00E94F526CE010E945211B3
:102F7000CE0168EE71E00E94F52664EF71E080E01A
:102F800090E00E94C7218BE196E067EF71E00E941C
:102F9000F526CE010E945211CE0167EF71E00E942A
:102FA000F52664EF71E080E090E00E94C7218BE19C
:102FB00096E06BE072E00E94F526CE010E9452116D
:102FC000CE016BE072E00E94F52664EF71E080E0D4
:102FD00090E00E94C7218BE196E06EE172E00E94D2
:102FE000F526CE010E945211CE016EE172E00E94E0
:102FF000F52664EF71E080E090E00E94C7218BE14C
:1030000096E06EE272E00E94F526CE010E94521117
:10301000CE016EE272E00E94F52664EF71E080E07E
:1030200090E00E94C7218BE196E063E372E00E948A
:10303000F526CE010E945211CE0163E372E00E9498
:10304000F52664EF71E080E090E00E94C72160ED1A
:1030500077E080E090E00E94C7211FAACE010E9485
:1030600052118BE196E06AE372E00E94F526DF914F
:10307000CF9108950F931F93CF93DF93CDB7DEB712
:1030800027970FB6F894DEBF0FBECDBF8C010E940C
:1030900061110097B1F0CE01019665E472E00E94E3
:1030A0006B2AC801BE016F5F7F4F48EB5BE00E9457
:1030B000FA15082FCE0101960E94D92B81E000233A
:1030C00009F480E027960FB6F894DEBF0FBECDBF9F
:1030D000DF91CF911F910F910895CF93DF93D82F58
:1030E000C92F0E946111009761F08BE196E06FE4B7
:1030F00072E00E94F5268D2F9C2F0E94521181E0D4
:1031000001C080E0DF91CF9108952F923F924F92BE
:103110005F926F927F928F929F92AF92BF92CF9267
:10312000DF92EF92FF920F931F93CF93DF93CDB770
:10313000DEB7A3970FB6F894DEBF0FBECDBF7C01FC
:103140004B018A01CB0161E070E00E944514F70158
:1031500087A9882319F4C7010E94AD16CE014D96A8
:1031600069E771E00E946B2A0115110551F4CE0147
:103170004D9668E672E00E949F2AC7016CE672E0F5
:103180000CC00130110559F4CE014D9663E772E091
:103190000E949F2AC70166E772E00E94F5260E94FE
:1031A000B9212B013C01CC24DD2410E0BE2CAF2C36
:1031B00040E3242E312C2E0C3F1C03C0CC24DD24F4
:1031C00011E08B2D9A2D0E9461110097A9F08B2D93
:1031D0009A2D0E941311082F8A3309F443C011233A
:1031E00011F4C10101C0C401B6010E946027FC01B5
:1031F00000830894C11CD11CCE014696BE01635EBB
:103200007F4F0E94C32BCE010F96B1010E94C32BAA
:10321000CE014696BE01615F7F4F0E943A1488231B
:1032200011F001E0111100E0CE010F960E94D92BA0
:10323000CE0146960E94D92B002309F0BFCF0E94F1
:10324000B921DC01CB0184199509A609B709893890
:10325000F3E19F07F0E0AF07F0E0BF0708F4B1CF5C
:1032600010E033C0CE01089664E872E00E946B2A39
:10327000CE01019669E771E00E946B2AC701C996E9
:10328000BE01685F7F4FAE014F5F5F4F0E94A02875
:10329000CE0101960E94D92BCE0108960E94D92B0F
:1032A0008BE196E066E872E00E94F2268BE196E000
:1032B000B4010E943B2768EC70E080E090E00E943F
:1032C000C721C7010E94F11611E08B2D9A2D0E9493
:1032D0005211CE014D960E94D92B812FA3960FB685
:1032E000F894DEBF0FBECDBFDF91CF911F910F913C
:1032F000FF90EF90DF90CF90BF90AF909F908F9016
:103300007F906F905F904F903F902F9008950F9314
:103310001F93CF93DF93CDB7DEB765970FB6F894C1
:10332000DEBF0FBECDBF8C01CE010F9669E771E005
:103330000E946B2AC801BE01615F7F4F41E050E0EF
:103340000E948518882309F446C0C8010E94AD1662
:1033500064EF71E080E090E00E94C721CE01019609
:103360006DE872E00E94852ACE010196BE01615F80
:103370007F4F0E94342ABC01CE0108960E94C32BC5
:10338000CE0101960E94DF2B8BE196E0BE01685FC3
:103390007F4F0E943B27C801BE01685F7F4F0E949C
:1033A0003B2764EF71E080E090E00E94C721C801F4
:1033B0006EE272E00E94F52664EF71E080E090E03A
:1033C0000E94C721C8010E94F116CE0108960E94F2
:1033D000D92B11E001C010E0CE010F960E94D92B2D
:1033E000812F65960FB6F894DEBF0FBECDBFDF917B
:1033F000CF911F910F910895BC01675C7F4F40E012
:1034000050E00E9485180895DF92EF92FF920F938B
:103410001F93CF93DF93CDB7DEB7A3970FB6F89482
:10342000DEBF0FBECDBF7C016623F1F0CE014D960D
:103430006AE972E00E946B2ACE01469669E771E064
:103440000E946B2AC701C096BE01635E7F4FAE012A
:103450004A5E5F4F0E94A028CE0146960E94D92B5B
:10346000CE014D960E94D92B8701005D1F4FCE01E2
:103470000F96B8014AE020E030E00E947114C801C4
:10348000BE01615F7F4F0E94AC2BCE010F960E9460
:10349000D92BCE010896B80140E050E021E030E0A1
:1034A0000E94652BCE0108960E948627D62EF70132
:1034B00024A935A9CE010196B80142E050E00E944E
:1034C000652BC801BE016F5F7F4F0E94AC2BCE0100
:1034D00001960E94D92BCE0108960E94D92B8D2DE2
:1034E000A3960FB6F894DEBF0FBECDBFDF91CF918C
:1034F0001F910F91FF90EF90DF900895AF92BF92D0
:10350000CF92DF92EF92FF920F931F93CF93DF93AF
:10351000CDB7DEB72E970FB6F894DEBF0FBECDBF86
:103520008C017B01B42E50E3C52ED12CC80ED91EC0
:10353000C60160E070E00E9445148BE196E061EA0C
:1035400072E00E94F2268BE196E0B7010E943B27D1
:10355000F80187A9882319F4C8010E94AD1664EF09
:1035600071E080E090E00E94C721C80167EA72E044
:103570000E94F526CE0108966AE972E00E946B2A45
:10358000C801BE01685F7F4F48E853E10E94FA1509
:10359000A82ECE0108960E94D92BAA20A9F06CE291
:1035A00071E080E090E00E94C721C8016B2D4AE0E5
:1035B00050E00E946326C8016CEA72E00E94F22685
:1035C000C801B7010E943B27CE0101966EEA72E066
:1035D0000E946B2AC801BE016F5F7F4F48E853E12C
:1035E0000E94FA15E82ECE0101960E94D92BEE20FA
:1035F000F1F08BE196E065EB72E00E94F226C801E3
:1036000060E00E94041AE82E8BE196E06E2D4AE0FD
:1036100050E00E9475268BE196E06BEB72E00E9411
:10362000F2268BE196E0B6010E943B2701C0EE2412
:10363000F80117AA8E2D2E960FB6F894DEBF0FBE96
:10364000CDBFDF91CF911F910F91FF90EF90DF9051
:10365000CF90BF90AF900895EF92FF920F931F937A
:10366000CF93DF93CDB7DEB72E970FB6F894DEBFBA
:103670000FBECDBF8C01662321F0613009F044C03C
:103680001DC08BE196E061EC72E00E94F526B80166
:10369000675C7F4FCE0108960E94C32BC801BE0114
:1036A000685F7F4F40E00E947E1A182FCE01089677
:1036B0000E94D92B01E0113039F527C08BE196E04B
:1036C00069ED72E00E94F526E9E3EE2EF12CE00EA2
:1036D000F11ECE010196B7010E94C32BC801BE01A5
:1036E0006F5F7F4F41E00E947E1A182FCE01019636
:1036F0000E94D92B01E0123009F000E0C70169E710
:1037000071E00E949F2A01C000E0802F2E960FB624
:10371000F894DEBF0FBECDBFDF91CF911F910F9107
:10372000FF90EF9008956F927F928F929F92BF9239
:10373000CF92DF92EF92FF920F931F93CF93DF937D
:10374000CDB7DEB7A4970FB6F894DEBF0FBECDBFDE
:103750006C018B0169E771E04CA30E946B2A4CA1BC
:10376000443049F1453009F498C0433009F0CAC0EB
:10377000CE014D9662E070E04AE00E941B2B80EF84
:1037800094E00E947910CE014696BE01635E7F4FA1
:103790000E94CE2BCE0146966CEA72E00E94182A57
:1037A0006FEE72E00E94182ABC01C6010E94AC2B89
:1037B000CE014696A1C0FDE18F2E912C8C0E9D1E50
:1037C000C40163E070E04AE00E941B2BA0E3EA2EF4
:1037D000F12CE00EF11EC70169E771E00E949F2AFB
:1037E0000E94B921DC01CB01F80184A795A7A6A707
:1037F000B7A780EF94E00E9479102CE1622E712C23
:10380000600E711EB82C092DC301B7010E94620F12
:103810008823D9F08130D9F08230C9F4CE010F96D7
:1038200065E070E04AE00E941B2B8B2D902FBE01BB
:10383000615F7F4F0E94AC2BCE010F960E94D92B67
:10384000C70168EF72E00E949F2A10E001C011E0FA
:1038500064E670E080E090E00E94C7211123A1F6A9
:103860008BE196E060E073E00E94F526CE010896B9
:10387000BE01635E7F4F0E94CE2BCE0108966CEA9C
:1038800072E00E94182AB7010E94342ABC01C601C6
:103890000E94AC2BCE0108962FC0CE014D9664E05D
:1038A00070E04AE00E941B2B80EF94E00E947910A8
:1038B0008BE196E065E073E00E94F526B801605D5B
:1038C0007F4FC8014C960E94CF0DCE010196BE01DC
:1038D000635E7F4F0E94CE2BCE0101966CEA72E0B0
:1038E0000E94182A6FE073E00E94182ABC01C601EA
:1038F0000E94AC2BCE0101960E94DF2BCE014D968B
:103900000E94D92BC601A4960FB6F894DEBF0FBE55
:10391000CDBFDF91CF911F910F91FF90EF90DF907E
:10392000CF90BF909F908F907F906F900895DF927F
:10393000EF92FF920F931F93CF93DF93CDB7DEB734
:1039400065970FB6F894DEBF0FBECDBF7C010E9415
:103950006111009709F46AC0CE010F9660E070E033
:103960000E946B2AC701BE01615F7F4F48E853E1A7
:103970000E94FA15082FCE010F960E94D92B002322
:1039800009F454C08BE196E064E173E00E94F526EF
:103990008BE196E065EB72E00E94F226C70161E0E0
:1039A0000E94041AD82E8BE196E06D2D4AE050E07B
:1039B0000E9475268BE196E06BEB72E00E94F22686
:1039C0008701005D1F4FC8010E9497278BE196E099
:1039D000B8010E943B27CE010896B7014D2D0E94E9
:1039E000931BC701BE01685F7F4F0E943B27CE013A
:1039F00008960E94D92BCE0101966EEA72E00E94D1
:103A00006B2AC701BE016F5F7F4F48E853E10E94F8
:103A1000FA15082FCE0101960E94D92B002331F010
:103A20008BE196E06DE173E00E94F52665960FB696
:103A3000F894DEBF0FBECDBFDF91CF911F910F91E4
:103A4000FF90EF90DF9008950F931F930E94B9218C
:103A5000DC01CB0140918205509183056091840582
:103A6000709185058C019D01041B150B260B370BEE
:103A7000093C11052105310518F021E0209340058E
:103A80008093820590938305A0938405B093850568
:103A90001F910F9108958130910539F482E495E0EA
:103AA00065E044E00E94AC150895009761F48BE74F
:103AB00095E00E94D92B82E795E00E94D92B82E401
:103AC00095E00E9432140895CF9380EF94E061E076
:103AD00040E00E94BA1082E495E00E941B17C1E00A
:103AE000882329F4C0E083E08093C90302C01092C8
:103AF000C9038BE196E067E273E00E94F2268BE156
:103B000096E06C2F70E04AE050E00E94D32680914E
:103B1000C903882361F460EA7FE080E090E00E94BE
:103B2000C7218BE196E06EE273E00E94F526CF910B
:103B30000895CF93DF938DE061E00E946522C0EF8E
:103B4000D4E0CE0166E047E00E942710CE0160E09D
:103B500040E00E94BA10CE010E943910CBE1D6E0BD
:103B6000CE0140E855E260E070E00E94CE23CE0135
:103B70006CE373E00E94F526C2E4D5E0CE010E941A
:103B8000E51560ED77E080E090E00E94C721CE016E
:103B90000E94F116CE010E9403170E94641D80E06E
:103BA00064E27DE143E050E00E94F420DF91CF9198
:103BB000089580914005882321F180EF94E060E032
:103BC00041E00E94BA10109240058BE196E06EE44D
:103BD00073E00E94F52682E495E00E945F178BE176
:103BE00096E066E673E00E94F52684E08093C903C0
:103BF00080EF94E060E042E00E94BA1081E08093A0
:103C00003F058091C903823009F4C8C0833038F47D
:103C1000882309F43FC0813009F0C4C077C08430E4
:103C200049F0843020F0853009F0BCC022C00E94E9
:103C3000641D089582E495E00E943A18882309F4EF
:103C4000B1C085E08093C90368EB7BE080E090E041
:103C50000E94C72182E495E00E9452118BE196E018
:103C600063E773E00E94F52680EF94E062E042E0B3
:103C70004AC082E495E00E946D18882309F492C03E
:103C800080EF94E060E040E00E94BA1083E080930F
:103C9000C903089568EB7BE080E090E00E94C721B3
:103CA00082E495E00E94FC19882329F08BE196E0DC
:103CB00069E873E004C08BE196E060E973E00E947C
:103CC000F52680913F058823B9F068EE73E080E027
:103CD00090E00E94C72182E495E00E948719882322
:103CE00029F08BE196E06AE973E004C08BE196E08D
:103CF00066EA73E00E94F52681E08093C90380EFB5
:103D000094E062E041E00E94BA10089568EB7BE025
:103D100080E090E00E94C72180913F05882331F028
:103D200010923F0582E495E060E003C082E495E0F4
:103D300061E00E942C1B882391F08BE196E06CEBF4
:103D400073E00E94F52680EF94E062E042E00E947A
:103D5000BA1080EF94E00E94521082E00DC08BE117
:103D600096E064EC73E00E94F52680EF94E061E059
:103D700041E00E94BA1087E08093C90368EE73E0C7
:103D800080E090E00E94C7210E94ED10BC018BE111
:103D900096E04AE050E00E94D326089582E495E040
:103DA0000E94971C089581E090E00E944B1D0895A9
:103DB00080E090E00E944B1D08955058BB27AA2731
:103DC0000ED075C166D130F06BD120F031F49F3F39
:103DD00011F41EF45BC10EF4E095E7FB51C1E92F2D
:103DE00077D180F3BA17620773078407950718F035
:103DF00071F49EF58FC10EF4E0950B2EBA2FA02D15
:103E00000B01B90190010C01CA01A0011124FF2787
:103E1000591B99F0593F50F4503E68F11A16F04082
:103E2000A22F232F342F4427585FF3CF4695379581
:103E30002795A795F0405395C9F77EF41F16BA0B46
:103E4000620B730B840BBAF09150A1F0FF0FBB1FF4
:103E5000661F771F881FC2F70EC0BA0F621F731F3D
:103E6000841F48F4879577956795B795F7959E3F9A
:103E700008F0B3CF9395880F08F09927EE0F979528
:103E800087950895D9D008F481E008950CD00FC12A
:103E900007D140F0FED030F021F45F3F19F0F0C0C0
:103EA000511139C1F3C014D198F39923C9F35523A3
:103EB000B1F3951B550BBB27AA276217730784071D
:103EC00038F09F5F5F4F220F331F441FAA1FA9F3D3
:103ED00033D00E2E3AF0E0E830D091505040E695C5
:103EE000001CCAF729D0FE2F27D0660F771F881F26
:103EF000BB1F261737074807AB07B0E809F0BB0B15
:103F0000802DBF01FF2793585F4F2AF09E3F510538
:103F100068F0B6C000C15F3FECF3983EDCF38695D5
:103F200077956795B795F7959F5FC9F7880F911DAE
:103F30009695879597F90895E1E0660F771F881F9A
:103F4000BB1F621773078407BA0720F0621B730B4D
:103F5000840BBA0BEE1F88F7E095089504D068949F
:103F6000B111D9C00895BCD088F09F5790F0B92FF7
:103F70009927B751A0F0D1F0660F771F881F991FBE
:103F80001AF0BA95C9F712C0B13081F0C3D0B1E0D0
:103F90000895C0C0672F782F8827B85F39F0B93FE0
:103FA000CCF3869577956795B395D9F73EF49095C0
:103FB0008095709561957F4F8F4F9F4F0895E8943E
:103FC00009C097FB3EF490958095709561957F4F61
:103FD0008F4F9F4F9923A9F0F92F96E9BB2793950F
:103FE000F695879577956795B795F111F8CFFAF41F
:103FF000BB0F11F460FF1BC06F5F7F4F8F4F9F4F50
:1040000016C0882311F096E911C0772321F09EE8AD
:10401000872F762F05C0662371F096E8862F70E013
:1040200060E02AF09A95660F771F881FDAF7880FED
:104030009695879597F90895990F0008550FAA0B43
:10404000E0E8FEEF16161706E807F907C0F01216AB
:104050001306E407F50798F0621B730B840B950BAE
:1040600039F40A2661F0232B242B252B21F4089503
:104070000A2609F4A140A6958FEF811D811D0895A0
:1040800097F99F6780E870E060E008959FEF80EC0B
:10409000089500240A9416161706180609060895AE
:1040A00000240A9412161306140605060895092E14
:1040B0000394000C11F4882352F0BB0F40F4BF2B83
:1040C00011F460FF04C06F5F7F4F8F4F9F4F0895C3
:1040D00057FD9058440F551F59F05F3F71F04795B9
:1040E000880F97FB991F61F09F3F79F0879508959E
:1040F000121613061406551FF2CF4695F1DF08C0BD
:10410000161617061806991FF1CF869571056105D9
:1041100008940895E894BB2766277727CB0197F981
:1041200008950BD0C4CFB5DF28F0BADF18F095237F
:1041300009F0A6CFABCF1124EECFCADFA0F3959F35
:10414000D1F3950F50E0551F629FF001729FBB277E
:10415000F00DB11D639FAA27F00DB11DAA1F649F2A
:104160006627B00DA11D661F829F2227B00DA11DDD
:10417000621F739FB00DA11D621F839FA00D611D63
:10418000221F749F3327A00D611D231F849F600D84
:10419000211D822F762F6A2F11249F5750408AF0BD
:1041A000E1F088234AF0EE0FFF1FBB1F661F771F49
:1041B000881F91505040A9F79E3F510570F060CF85
:1041C000AACF5F3FECF3983EDCF386957795679531
:1041D000B795F795E7959F5FC1F7FE2B880F911D67
:1041E0009695879597F90895823000F5E82FF0E0CD
:1041F000EE0FFF1FEA57FA4F71836083882319F08F
:104200008130A1F408C0809169008C7F842B809359
:104210006900E89A089580916900440F551F440F82
:10422000551F837F842B80936900E99A08951F921C
:104230000F920FB60F9211242F933F934F935F93DA
:104240006F937F938F939F93AF93BF93EF93FF935E
:104250008091860590918705892B29F0E09186054C
:10426000F09187050995FF91EF91BF91AF919F91D3
:104270008F917F916F915F914F913F912F910F900F
:104280000FBE0F901F9018951F920F920FB60F92AE
:1042900011242F933F934F935F936F937F938F934B
:1042A0009F93AF93BF93EF93FF9380918805909175
:1042B0008905892B29F0E0918805F09189050995F8
:1042C000FF91EF91BF91AF919F918F917F916F91EE
:1042D0005F914F913F912F910F900FBE0F901F90C4
:1042E00018951F920F920FB60F9211242F933F93A0
:1042F0008F939F93AF93BF9380918E0590918F057D
:10430000A0919005B0919105309192050196A11D63
:10431000B11D232F2D5F2D3720F02D570196A11DA4
:10432000B11D2093920580938E0590938F05A093E5
:104330009005B093910580918A0590918B05A0918D
:104340008C05B0918D050196A11DB11D80938A0544
:1043500090938B05A0938C05B0938D05BF91AF9181
:104360009F918F913F912F910F900FBE0F901F90B3
:1043700018958FB7F89420918E0530918F05409154
:104380009005509191058FBFB901CA0108959B0115
:10439000AC017FB7F89480918A0590918B05A0912C
:1043A0008C05B0918D0566B5A89B05C06F3F19F0CF
:1043B0000196A11DB11D7FBFBA2FA92F982F882765
:1043C000860F911DA11DB11D62E0880F991FAA1FC4
:1043D000BB1F6A95D1F7BC012DC0FFB7F89480913F
:1043E0008A0590918B05A0918C05B0918D05E6B55D
:1043F000A89B05C0EF3F19F00196A11DB11DFFBF9D
:10440000BA2FA92F982F88278E0F911DA11DB11D9E
:10441000E2E0880F991FAA1FBB1FEA95D1F7861B00
:10442000970B885E9340C8F2215030404040504086
:1044300068517C4F211531054105510571F60895EC
:10444000019739F0880F991F880F991F02970197DC
:10445000F1F70895789484B5826084BD84B5816055
:1044600084BD85B5826085BD85B5816085BDEEE67C
:10447000F0E0808181608083E1E8F0E0108280815B
:1044800082608083808181608083E0E8F0E08081C9
:1044900081608083E1EBF0E0808184608083E0EBE9
:1044A000F0E0808181608083EAE7F0E080818460D1
:1044B000808380818260808380818160808380812D
:1044C000806880831092C1000895CF93DF93482FB6
:1044D00050E0CA01865D9E4FFC0134914A5E5E4FFA
:1044E000FA018491882369F190E0880F991FFC01FB
:1044F000E850FF4FA591B491FC01EE5FFE4FC591CE
:10450000D491662351F42FB7F8948C91932F909502
:1045100089238C93888189230BC0623061F42FB783
:10452000F8948C91932F909589238C938881832B79
:1045300088832FBF06C09FB7F8948C91832B8C93F0
:104540009FBFDF91CF910895482F50E0CA01825C50
:104550009E4FFC012491CA01865D9E4FFC019491FF
:104560004A5E5E4FFA013491332309F440C022239E
:1045700051F1233071F0243028F42130A1F02230A1
:1045800011F514C02630B1F02730C1F02430D9F431
:1045900004C0809180008F7703C0809180008F7D60
:1045A0008093800010C084B58F7702C084B58F7D62
:1045B00084BD09C08091B0008F7703C08091B000A6
:1045C0008F7D8093B000E32FF0E0EE0FFF1FEE5FD2
:1045D000FE4FA591B4912FB7F894662321F48C91E6
:1045E0009095892302C08C91892B8C932FBF0895BD
:1045F000682F70E0CB01825C9E4FFC012491CB01BF
:10460000865D9E4FFC0144916A5E7E4FFB01949152
:10461000992319F420E030E03CC0222351F12330EB
:1046200071F0243028F42130A1F0223011F514C0AB
:104630002630B1F02730C1F02430D9F404C0809185
:1046400080008F7703C0809180008F7D80938000F1
:1046500010C084B58F7702C084B58F7D84BD09C03A
:104660008091B0008F7703C08091B0008F7D8093E0
:10467000B000892F90E0880F991F845F9E4FFC0146
:10468000A591B4918C9120E030E0842311F021E0D9
:1046900030E0C901089508951F920F920FB60F924E
:1046A00011242F933F934F938F939F93EF93FF93F7
:1046B0004091C6002091D3053091D4052F5F3F4F24
:1046C0002F7330708091D5059091D6052817390742
:1046D00059F0E091D305F091D405ED56FA4F40839F
:1046E0003093D4052093D305FF91EF919F918F9143
:1046F0004F913F912F910F900FBE0F901F901895E3
:10470000E0912706F0912806E05CFF4F819191919E
:1047100020813181821B930B8F739070892B11F054
:104720000E944B2308951F920F920FB60F921124EF
:104730002F933F938F939F93EF93FF9320911706AF
:10474000309118068091190690911A06281739079A
:1047500031F48091C1008F7D8093C10014C0E0913D
:104760001906F0911A06E952FA4F20818091190634
:1047700090911A0601968F73907090931A06809309
:1047800019062093C600FF91EF919F918F913F9161
:104790002F910F900FBE0F901F901895AF92BF9260
:1047A000DF92EF92FF920F931F93CF93DF93EC0171
:1047B0007A018B01DD24403081EE580780E06807E4
:1047C00080E0780711F0DD24D39491E0A92EB12C7C
:1047D000EC89FD89DD2069F0C5010E8C02C0880FCF
:1047E000991F0A94E2F7808360E079E08DE390E01E
:1047F00005C0108260E874E88EE190E0A80197019E
:104800000E94232C215030404040504056954795FF
:104810003795279580E12030380720F0DD2011F012
:10482000DD24D6CFE889F9893083EA89FB892083A2
:10483000EE89FF89408121E030E0C9010A8C02C085
:10484000880F991F0A94E2F7482B4083EE89FF896D
:104850004081C9010B8C02C0880F991F0A94E2F7AE
:10486000482B4083EE89FF894081C9010C8C02C02E
:10487000880F991F0A94E2F7482B4083EE89FF893D
:1048800080810D8C02C0220F331F0A94E2F720951D
:1048900028232083DF91CF911F910F91FF90EF90FC
:1048A000DF90BF90AF900895DC011C96ED91FC91D4
:1048B0001D97E05CFF4F2191319180819181281BF0
:1048C000390B2F733070C9010895DC011C96ED91EE
:1048D000FC911D97E05CFF4F20813181E054F04056
:1048E000DF01AE5BBF4F8D919C911197281739075F
:1048F00019F42FEF3FEF07C08D919C91E80FF91F3E
:104900008081282F30E0C9010895DC011C96ED91CB
:10491000FC911D97E05CFF4F20813181E054F04015
:10492000DF01AE5BBF4F8D919C911197281739071E
:1049300019F42FEF3FEF10C08D919C911197E80F64
:10494000F91F20818D919C91119701968F73907022
:1049500011969C938E9330E0C9010895FC018685E1
:104960009785DC01A05CBF4FFC01EE5BFF4F2D91F2
:104970003C9111978081918128173907C1F70895DB
:10498000CF93DF93EC01EE85FF85E05CFF4F208144
:104990003181E054F0402F5F3F4F2F733070DF01C3
:1049A000AE5BBF4F8D919C91119728173907D1F3BA
:1049B000E05CFF4F80819181E054F040E80FF91FE7
:1049C0006083EE85FF85E05CFF4F31832083EE89B5
:1049D000FF89208181E090E00D8C02C0880F991F33
:1049E0000A94E2F7282B208381E090E0DF91CF91B9
:1049F000089510921E0610921D0688EE93E0A0E026
:104A0000B0E080931F0690932006A0932106B093F8
:104A1000220685ED93E090931C0680931B0683E9A4
:104A200095E0909328068093270687ED95E0909374
:104A30002A068093290685EC90E090932C068093BB
:104A40002B0684EC90E090932E0680932D0680EC4C
:104A500090E09093300680932F0681EC90E0909345
:104A600032068093310686EC90E090933406809372
:104A7000330684E08093350683E08093360687E032
:104A80008093370685E08093380681E0809339066D
:104A90000895CF93DF930E942A220E94991DC0E8B7
:104AA000D3E20E94D91D2097E1F30E948023F9CF21
:104AB0000895CF92DF92EF92FF920F931F93CF93BF
:104AC000DF937C016B018A01C0E0D0E00FC0D6010A
:104AD0006D916D01D701ED91FC910190F081E02D78
:104AE000C7010995C80FD91F0150104001151105C4
:104AF00071F7CE01DF91CF911F910F91FF90EF9051
:104B0000DF90CF900895DC01ED91FC910190F08150
:104B1000E02D09950895EF92FF920F931F938C015A
:104B2000DC01ED91FC910190F081E02D6DE00995A3
:104B30007C01D801ED91FC910190F081E02DC8013C
:104B40006AE009959C012E0D3F1DC9011F910F912F
:104B5000FF90EF900895CF93DF93DB010D9000203D
:104B6000E9F71197A61BB70BEC01E881F9810280E8
:104B7000F381E02DAD010995DF91CF9108954F921A
:104B80005F927F928F929F92AF92BF92CF92DF926D
:104B9000EF92FF920F931F93DF93CF93CDB7DEB7C2
:104BA000A1970FB6F894DEBF0FBECDBF2C01742EB7
:104BB000CB01223008F42AE019A231E2C32ED12C15
:104BC000CC0EDD1E822E9924AA24BB24672D752FBE
:104BD000A50194010E94232C79018A01C801B70123
:104BE000A50194010E94E52B472D461B0894C1089E
:104BF000D1084A3014F4405D01C0495CF60140839D
:104C0000E114F1040105110521F07E2C5F2DC8018E
:104C1000DDCFC201B6010E94AB25A1960FB6F89474
:104C2000DEBF0FBECDBFCF91DF911F910F91FF90DF
:104C3000EF90DF90CF90BF90AF909F908F907F903C
:104C40005F904F900895DC012115310541F4ED91FD
:104C5000FC910190F081E02D642F099508950E9448
:104C6000BF250895EF92FF920F931F937C010E943E
:104C700023268C01C7010E948B259C01200F311F28
:104C8000C9011F910F91FF90EF900895CF92DF928D
:104C9000EF92FF920F931F936C017B019A0100E04A
:104CA00010E0B801A7010E9423268C01C6010E94D2
:104CB0008B25080F191FC8011F910F91FF90EF90CE
:104CC000DF90CF900895EF92FF920F931F939A0178
:104CD000E62EFF2400E010E0B801A7010E94232681
:104CE0001F910F91FF90EF900895CF92DF92EF9276
:104CF000FF920F931F936C01E62E9A01FF2400E0B0
:104D000010E0B801A7010E9423268C01C6010E9471
:104D10008B25080F191FC8011F910F91FF90EF906D
:104D2000DF90CF900895CF92DF92EF92FF920F9392
:104D30001F93CF93DF93EC016A017B0121153105AD
:104D400041F4E881F9810190F081E02D642F09950B
:104D50001FC02A303105D1F477FF17C0E881F981EF
:104D60000190F081E02D6DE209958C0144275527D3
:104D7000BA014C195D096E097F09CE012AE00E9433
:104D8000BF259801280F391F04C02AE00E94BF25C3
:104D90009C01C901DF91CF911F910F91FF90EF907E
:104DA000DF90CF900895CF92DF92EF92FF920F9312
:104DB0001F936C017B019A010027F7FC0095102FCF
:104DC000B801A7010E9493268C01C6010E948B2581
:104DD000080F191FC8011F910F91FF90EF90DF90EE
:104DE000CF9008950E94AB250895EF92FF920F9304
:104DF0001F937C010E94AB258C01C7010E948B256B
:104E0000080F191FC8011F910F91FF90EF9008958F
:104E1000AF92BF92CF92DF92EF92FF920F931F93C8
:104E2000CF93DF935C016B01EE24FF24C0E0D0E060
:104E300010C0D501ED91FC9100811181C601BE0128
:104E40000E947527682FC501F8010995E80EF91E23
:104E50002196F60184819581C817D90750F3C701BF
:104E6000DF91CF911F910F91FF90EF90DF90CF9046
:104E7000BF90AF900895EF92FF920F931F937C0124
:104E80000E9408278C01C7010E948B259C01200FDE
:104E9000311FC9011F910F91FF90EF900895FC0100
:104EA000848195816817790748F40190F081E02D9D
:104EB000309721F0E60FF71F8081089580E0089574
:104EC000FC019B01848195816817790728F4608132
:104ED00071816115710529F410923A066AE376E052
:104EE00002C0620F731FCB010895FC01848195817C
:104EF0006817790748F40190F081E02D309721F090
:104F0000E60FF71F8081089580E00895FC018081FD
:104F10009181009729F420E030E040E050E004C0A7
:104F20000E94742E9B01AC01B901CA010895CF9271
:104F3000DF92EF92FF920F931F93CF93DF936C0159
:104F4000DC01ED90FC901197E114F10409F441C0EB
:104F50001496CD91DC9115972097D9F1870102C065
:104F60000F5F1F4FF8018081992787FD90950E9460
:104F70009B2E892BA9F72197CE0DDF1D01C021970C
:104F80008881992787FD90950E949B2E892B19F087
:104F9000C017D107A0F7FE013196E01BF10BD60137
:104FA0001596FC93EE9314972D913C9120173107A1
:104FB00028F4C901B801AF010E94A32ED601ED91DA
:104FC000FC91119714968D919C911597E80FF91FFC
:104FD0001082DF91CF911F910F91FF90EF90DF90A2
:104FE000CF900895AF92BF92CF92DF92EF92FF924F
:104FF0000F931F93CF93DF93FC015B017A01DB01D9
:1050000014962D913C9115972115310559F1848104
:105010009581009739F18217930720F148175907B6
:1050200020F07C010894E108F10800811181C80199
:10503000CFEFDFEF6801CE0CDF1C10C0F5016081FF
:1050400071810E94CE2E9C01009771F0801B910B04
:10505000E816F90608F0EC01C9010196C816D90650
:1050600068F702C0CFEFDFEFCE01DF91CF911F9144
:105070000F91FF90EF90DF90CF90BF90AF90089589
:10508000CF93DF93FC01DB01848195814817590799
:1050900060F4C081D1816D917C91CE01840F951F08
:1050A0000E94CE2E9C01009719F42FEF3FEF02C013
:1050B0002C1B3D0BC901DF91CF91089540E050E0DA
:1050C0000E9440280895DC01FB0114968D919C916B
:1050D0001597892B31F461157105A9F090E0808155
:1050E00008C00D90BC91A02D6115710529F490E0C8
:1050F0008C91882349F407C0CD010E94BE2E9C01EB
:1051000090E0232B09F491E0892F08950F931F93CA
:10511000CF93DF93EC018B016F5F7F4F8881998183
:105120000E94A92D009711F480E005C0998388831F
:105130001B830A8381E0DF91CF911F910F91089526
:105140002F923F924F925F926F927F928F929F9297
:10515000AF92BF92CF92DF92EF92FF920F931F9385
:10516000CF93DF935C012B014A01DC0114960D9172
:105170001C9115970115110509F4D4C0FB01C480D9
:10518000D580C114D10409F4CDC0DA0114966D9014
:105190007C9015976C187D08FC01E080F18061140B
:1051A000710491F01BC0D4016C9111967C91119700
:1051B00014964D915C9115978C2F0E94A32EF401AB
:1051C000E480F580EC0EFD1ED2016D917C91C7014B
:1051D0000E94CE2EEC01009731F7A4C077FE02C0EA
:1051E00067012EC0FB0120803180E8013CC08E01A8
:1051F0000E191F09C601B701A8010E94A32E0C0DAC
:105200001D1DD4016C9111967C91119714964D91AE
:105210005C911597C8010E94A32EF401C480D5802B
:10522000C00ED11ED2011496ED90FC901597EC0E95
:10523000FD1EF50184819581860D971D95838483DC
:10524000D2016D917C91C7010E94CE2EEC01009796
:1052500071F6C601B7010E94C72E64C07B01EC0C39
:10526000FD1CC60DD71DC701B1010E94CE2EBC0189
:105270000097A1F7C017D10709F454C0F501828146
:1052800093818C179D0708F044C0C501BE010E94A0
:1052900086288823F1F546C0C501B201A9010E9404
:1052A000F227EC0197FD3EC0D5016D917C911197DD
:1052B000F201848195818C0F9D1F680F791F1496D0
:1052C0004D915C911597481B590BCB01860D971D8D
:1052D0000E94AC2ED50114968D919C911597860D48
:1052E000971D15969C938E931497ED91FC911197B1
:1052F000E80FF91F10822D913C912C0F3D1FF401F6
:105300006081718144815581C9010E94A32E9E0153
:1053100005C0D50114962D913C9115972150304030
:1053200037FFBACFDF91CF911F910F91FF90EF9090
:10533000DF90CF90BF90AF909F908F907F906F90B5
:105340005F904F903F902F900895CF93DF93EC01A3
:1053500088819981892B29F08A819B8186179707FB
:1053600060F4CE010E948628882341F08C819D81C3
:10537000892B19F4E881F981108281E0DF91CF91C6
:105380000895EF92FF920F931F93CF93DF93EC0159
:105390007B016C817D81E114F104C1F0411551055F
:1053A00099F08A01060F171FB8010E94A5298823CA
:1053B00069F0888199812C813D81820F931FB7010B
:1053C0000E94C72E1D830C8381E001C080E0DF9125
:1053D000CF911F910F91FF90EF9008956115710586
:1053E00011F480E00895DB010D900020E9F711979A
:1053F000A61BB70BAD010E94C1290895FB01608176
:105400007181448155810E94C1290895CF93DF9312
:10541000EC0188819981009711F00E94102D19826A
:1054200018821D821C821B821A82DF91CF910895FF
:105430000F931F93182F092F6115710561F0DB0180
:105440000D900020E9F71197A61BB70BAD010E9444
:10545000C129882321F4812F902F0E94062A812FB1
:10546000902F1F910F9108950F931F93182F092FBD
:10547000FB0160817181448155810E94C12988238B
:1054800021F4812F902F0E94062A812F902F1F91A7
:105490000F910895EF92FF920F931F93CF93DF9395
:1054A000EC017B018A01BA010E94A529882321F41D
:1054B000CE010E94062A07C01D830C838881998132
:1054C000B7010E94C72ECE01DF91CF911F910F919E
:1054D000FF90EF900895CF93DF93EC01198218822B
:1054E0001B821A821D821C821E826115710551F079
:1054F000DB010D900020E9F71197A61BB70BAD015A
:105500000E944A2ADF91CF910895CF93DF93EC0157
:10551000198218821B821A821D821C821E826115CA
:10552000710551F0DB010D900020E9F71197A61BE2
:10553000B70BAD010E944A2ADF91CF9108950F93D6
:105540001F93182F092F6115710559F0DB010D907C
:105550000020E9F71197A61BB70BAD010E944A2A5C
:1055600002C00E94062A812F902F1F910F9108954B
:10557000EF92FF920F931F93DF93CF93CDB7DEB7D8
:10558000A1970FB6F894DEBF0FBECDBF8C01FC0112
:105590001182108213821282158214821682CB012C
:1055A000BA017E010894E11CF11CA70130E00E94C1
:1055B0001E2FC801B7010E949F2AA1960FB6F8942A
:1055C000DEBF0FBECDBFCF91DF911F910F91FF9036
:1055D000EF900895EF92FF920F931F93DF93CF9375
:1055E000CDB7DEB761970FB6F894DEBF0FBECDBF63
:1055F0008C01CB01F8011182108213821282158274
:10560000148216827E010894E11CF11CB70150E05F
:105610000E94432FC801B7010E949F2A61960FB6CE
:10562000F894DEBF0FBECDBFCF91DF911F910F91D8
:10563000FF90EF900895EF92FF920F931F93DF93E7
:10564000CF93CDB7DEB762970FB6F894DEBF0FBE2B
:10565000CDBF8C01CB01F80111821082138212821E
:105660001582148216827E010894E11CF11CB70198
:1056700050E00E94E82EC801B7010E949F2A62965E
:105680000FB6F894DEBF0FBECDBFCF91DF911F9153
:105690000F91FF90EF900895DF93CF9300D0CDB797
:1056A000DEB7FC01118210821382128215821482ED
:1056B000168269831A82BE016F5F7F4F0E949F2A04
:1056C0000F900F90CF91DF910895BF92CF92DF920C
:1056D000EF92FF920F931F93CF93DF93082FB92E72
:1056E0006B017A01E9012417350710F4EA01790109
:1056F000802F9B2D6AEC73E00E946B2AD6011496D2
:105700008D919C9115978E159F05D0F08C179D0754
:1057100008F4EC01D601ED91FC911197EC0FFD1FFF
:10572000108110826D917C916E0D7F1D802F9B2DBD
:105730000E949F2AD601ED91FC91EC0FFD1F108372
:10574000802F9B2DDF91CF911F910F91FF90EF90B4
:10575000DF90CF90BF900895CF93DF93EC01FB01D2
:105760008617970761F0608171816115710529F0D5
:10577000448155810E944A2A02C00E94062ACE0115
:10578000DF91CF910895FC01118210821382128261
:105790001582148216820E94AC2B0895FC0111829E
:1057A0001082138212821582148216820E94AC2B00
:1057B0000895FC01808191810E94102D0895FC01C3
:1057C000808191810E94102D0895629FD001739F66
:1057D000F001829FE00DF11D649FE00DF11D929F8D
:1057E000F00D839FF00D749FF00D659FF00D9927CC
:1057F000729FB00DE11DF91F639FB00DE11DF91FF0
:10580000BD01CF0111240895991B79E004C0991FAF
:10581000961708F0961B881F7A95C9F7809508950A
:1058200097FB092E07260AD077FD04D049D006D071
:1058300000201AF4709561957F4F0895F6F79095C2
:1058400081959F4F0895A1E21A2EAA1BBB1BFD0153
:105850000DC0AA1FBB1FEE1FFF1FA217B307E4074F
:10586000F50720F0A21BB30BE40BF50B661F771FA7
:10587000881F991F1A9469F7609570958095909587
:105880009B01AC01BD01CF01089597FB092E0526B0
:105890000ED057FD04D0D7DF0AD0001C38F4509545
:1058A0004095309521953F4F4F4F5F4F0895F6F744
:1058B00090958095709561957F4F8F4F9F4F08957C
:1058C000AA1BBB1B51E107C0AA1FBB1FA617B70726
:1058D00010F0A61BB70B881F991F5A95A9F7809542
:1058E0009095BC01CD010895EE0FFF1F0590F49136
:1058F000E02D0994CF93DF93AC018230910510F431
:1059000042E050E0E0913D06F0913E0620E030E0BC
:10591000A0E0B0E024C08081918184179507D0F089
:105920008417950771F482819381109729F013965B
:105930009C938E9312972CC090933E0680933D06C5
:1059400027C02115310519F08217930718F49C011F
:10595000BD01EF0192818381DF01E92FF82F30979C
:10596000D1F621153105F9F0C901841B950B84305E
:10597000910580F48A819B816115710521F0FB01FD
:105980009383828304C090933E0680933D06FE017C
:10599000329642C0FE01E80FF91F419351930297DE
:1059A0009983888339C080913B0690913C0600978B
:1059B00041F48091CD039091CE0390933C06809367
:1059C0003B062091CB033091CC032115310541F4E6
:1059D0002DB73EB78091CF039091D003281B390B90
:1059E000E0913B06F0913C06E217F30798F42E1B7A
:1059F0003F0B2417350770F0CA01029628173907A4
:105A000048F08E0F9F1F90933C0680933B06419376
:105A1000519302C0E0E0F0E0CF01DF91CF91089513
:105A20000F931F93CF93DF939C01009709F48CC0D1
:105A3000DC01129713961C921E92129760913D06FC
:105A400070913E066115710589F48D919C911197B5
:105A5000820F931F20913B0630913C06281739078F
:105A600069F5B0933C06A0933B066EC0FB0140E095
:105A700050E001C0FC01EA17FB0730F482819381FA
:105A8000AF010097B9F71FC0E9012297FB83EA83B2
:105A900008811981C901800F911F8E179F0759F442
:105AA00080819181800F911F0296998388838281E2
:105AB00093819B838A834115510529F4B0933E0657
:105AC000A0933D0641C0FA01B383A283C191D19155
:105AD000EC0FFD1FAE17BF0781F4F901929182917F
